:100A0900100854454D5020494E2043454C534955F3
:020A1900530088
:1009CF00E4FDFCC3ED9FEC9E5015E4FBFA0BBB005E
:0F09DF00010AEB64054A70F50DBD00010C80E4C0
:0109EE0022E6
:100A1C008F9075B0407F327E001209CFC2B612099A
:020A2C00CF22D7
:0509EF001209CF7F306A
:1009F4008F9075B0607FF47E011209CFC2B67F324A
:050A04001E1209CF22C3
:10099A007F987E3A1209EF7F947E111209EF7F2C1D
:1009AA007E011209EF7F8A7E021209CF7F38120A6E
:1009BA001C7F0F120A1C7F01120A1C7F06120A1CD6
:0509CA007F80020A1C01
:10080000E4F51CF51D758001F590F5B075A0FF129B
:10081000099A7F107E271209CFC2B0C2B17F0A7E2B
:10082000001209CFD2B1D2B22080FDC2B2AFA07502
:1008300018008F19E4F51CF51D7408251DF8E6FF56
:10084000600D1209F4051DE51D70EE051C80EA7FA0
:10085000C7120A1CAE18AF197C007D64120945EF5F
:1008600060062430FF1209F47F647E001209CFAEC7
:1008700018AF197C007D641209458C1A8D1BAE1AC5
:10088000AF1B7C007D0A120945A907E92430FF123D
:1008900009F4E975F00AA4FEC3E51B9EF51E243099
:1008A000FF1209F47F107E271209CF1209CF120917
:0908B000CF7F01120A1C0208129C
:030000000208B93A
:0C08B900787FE4F6D8FD75811E0209006E
:10094500BC000BBE0029EF8DF084FFADF022E4CC96
:10095500F875F008EF2FFFEE33FEEC33FCEE9DEC5F
:10096500984005FCEE9DFE0FD5F0E9E4CEFD22EDA5
:10097500F8F5F0EE8420D21CFEADF075F008EF2FEF
:10098500FFED33FD4007985006D5F0F222C398FDE0
:050995000FD5F0EA227D
:1008C500020800E493A3F8E493A34003F68001F241
:1008D50008DFF48029E493A3F85407240CC8C33334
:1008E500C4540F4420C8834004F456800146F6DF03
:1008F500E4800B0102040810204080900A09E47E80
:10090500019360BCA3FF543F30E509541FFEE493F7
:10091500A360010ECF54C025E060A840B8E493A3BE
:10092500FAE493A3F8E493A3C8C582C8CAC583CAE9
:10093500F0A3C8C582C8CAC583CADFE9DEE780BEA1
:010A1B0000DA
:00000001FF
